{
  "contractName": "Banker",
  "abi": [
    {
      "inputs": [],
      "payable": false,
      "stateMutability": "nonpayable",
      "type": "constructor"
    },
    {
      "anonymous": false,
      "inputs": [],
      "name": "GameStarted",
      "type": "event"
    },
    {
      "anonymous": false,
      "inputs": [],
      "name": "GameStopped",
      "type": "event"
    },
    {
      "anonymous": false,
      "inputs": [
        {
          "indexed": false,
          "internalType": "address",
          "name": "player",
          "type": "address"
        },
        {
          "indexed": false,
          "internalType": "string",
          "name": "name",
          "type": "string"
        }
      ],
      "name": "PlayerJoined",
      "type": "event"
    },
    {
      "constant": true,
      "inputs": [
        {
          "internalType": "address",
          "name": "",
          "type": "address"
        }
      ],
      "name": "addrPlayerMapping",
      "outputs": [
        {
          "internalType": "address",
          "name": "addr",
          "type": "address"
        },
        {
          "internalType": "string",
          "name": "name",
          "type": "string"
        },
        {
          "internalType": "bool",
          "name": "taken",
          "type": "bool"
        },
        {
          "internalType": "enum Banker.Piece",
          "name": "piece",
          "type": "uint8"
        }
      ],
      "payable": false,
      "stateMutability": "view",
      "type": "function"
    },
    {
      "constant": true,
      "inputs": [],
      "name": "assetManager",
      "outputs": [
        {
          "internalType": "contract AssetManager",
          "name": "",
          "type": "address"
        }
      ],
      "payable": false,
      "stateMutability": "view",
      "type": "function"
    },
    {
      "constant": true,
      "inputs": [],
      "name": "bank",
      "outputs": [
        {
          "internalType": "contract Bank",
          "name": "",
          "type": "address"
        }
      ],
      "payable": false,
      "stateMutability": "view",
      "type": "function"
    },
    {
      "constant": true,
      "inputs": [],
      "name": "banker",
      "outputs": [
        {
          "internalType": "address",
          "name": "",
          "type": "address"
        }
      ],
      "payable": false,
      "stateMutability": "view",
      "type": "function"
    },
    {
      "constant": true,
      "inputs": [],
      "name": "ended",
      "outputs": [
        {
          "internalType": "bool",
          "name": "",
          "type": "bool"
        }
      ],
      "payable": false,
      "stateMutability": "view",
      "type": "function"
    },
    {
      "constant": true,
      "inputs": [
        {
          "internalType": "string",
          "name": "",
          "type": "string"
        }
      ],
      "name": "names",
      "outputs": [
        {
          "internalType": "bool",
          "name": "",
          "type": "bool"
        }
      ],
      "payable": false,
      "stateMutability": "view",
      "type": "function"
    },
    {
      "constant": true,
      "inputs": [
        {
          "internalType": "uint256",
          "name": "",
          "type": "uint256"
        }
      ],
      "name": "players",
      "outputs": [
        {
          "internalType": "address",
          "name": "addr",
          "type": "address"
        },
        {
          "internalType": "string",
          "name": "name",
          "type": "string"
        },
        {
          "internalType": "bool",
          "name": "taken",
          "type": "bool"
        },
        {
          "internalType": "enum Banker.Piece",
          "name": "piece",
          "type": "uint8"
        }
      ],
      "payable": false,
      "stateMutability": "view",
      "type": "function"
    },
    {
      "constant": true,
      "inputs": [],
      "name": "started",
      "outputs": [
        {
          "internalType": "bool",
          "name": "",
          "type": "bool"
        }
      ],
      "payable": false,
      "stateMutability": "view",
      "type": "function"
    },
    {
      "constant": false,
      "inputs": [],
      "name": "startGame",
      "outputs": [],
      "payable": false,
      "stateMutability": "nonpayable",
      "type": "function"
    },
    {
      "constant": false,
      "inputs": [],
      "name": "stopGame",
      "outputs": [],
      "payable": false,
      "stateMutability": "nonpayable",
      "type": "function"
    },
    {
      "constant": false,
      "inputs": [
        {
          "internalType": "string",
          "name": "_name",
          "type": "string"
        }
      ],
      "name": "joinGame",
      "outputs": [],
      "payable": false,
      "stateMutability": "nonpayable",
      "type": "function"
    },
    {
      "constant": true,
      "inputs": [
        {
          "internalType": "address",
          "name": "account",
          "type": "address"
        }
      ],
      "name": "getBalance",
      "outputs": [
        {
          "internalType": "uint256",
          "name": "",
          "type": "uint256"
        }
      ],
      "payable": false,
      "stateMutability": "view",
      "type": "function"
    },
    {
      "constant": true,
      "inputs": [
        {
          "internalType": "string",
          "name": "_name",
          "type": "string"
        }
      ],
      "name": "isPropertyAvailable",
      "outputs": [
        {
          "internalType": "bool",
          "name": "",
          "type": "bool"
        }
      ],
      "payable": false,
      "stateMutability": "view",
      "type": "function"
    },
    {
      "constant": true,
      "inputs": [
        {
          "internalType": "string",
          "name": "_name",
          "type": "string"
        }
      ],
      "name": "getPropertyOwner",
      "outputs": [
        {
          "internalType": "address",
          "name": "",
          "type": "address"
        }
      ],
      "payable": false,
      "stateMutability": "view",
      "type": "function"
    },
    {
      "constant": true,
      "inputs": [],
      "name": "getPropertyManager",
      "outputs": [
        {
          "internalType": "address",
          "name": "",
          "type": "address"
        }
      ],
      "payable": false,
      "stateMutability": "view",
      "type": "function"
    },
    {
      "constant": true,
      "inputs": [],
      "name": "getNumberOfPlayers",
      "outputs": [
        {
          "internalType": "uint256",
          "name": "",
          "type": "uint256"
        }
      ],
      "payable": false,
      "stateMutability": "view",
      "type": "function"
    },
    {
      "constant": true,
      "inputs": [
        {
          "internalType": "address",
          "name": "_addr",
          "type": "address"
        }
      ],
      "name": "isPlayerInGame",
      "outputs": [
        {
          "internalType": "bool",
          "name": "",
          "type": "bool"
        }
      ],
      "payable": false,
      "stateMutability": "view",
      "type": "function"
    },
    {
      "constant": false,
      "inputs": [
        {
          "internalType": "string",
          "name": "_name",
          "type": "string"
        }
      ],
      "name": "buyProperty",
      "outputs": [],
      "payable": false,
      "stateMutability": "nonpayable",
      "type": "function"
    }
  ],
  "bytecode": "0x60806040523480156200001157600080fd5b50336000806101000a81548173ffffffffffffffffffffffffffffffffffffffff021916908373ffffffffffffffffffffffffffffffffffffffff160217905550604051620000609062001394565b604051809103906000f0801580156200007d573d6000803e3d6000fd5b50600160006101000a81548173ffffffffffffffffffffffffffffffffffffffff021916908373ffffffffffffffffffffffffffffffffffffffff160217905550600160009054906101000a900473ffffffffffffffffffffffffffffffffffffffff1673ffffffffffffffffffffffffffffffffffffffff166340c10f196000809054906101000a900473ffffffffffffffffffffffffffffffffffffffff16620186a06040518363ffffffff1660e01b8152600401808373ffffffffffffffffffffffffffffffffffffffff1673ffffffffffffffffffffffffffffffffffffffff16815260200182815260200192505050600060405180830381600087803b1580156200018c57600080fd5b505af1158015620001a1573d6000803e3d6000fd5b50505050604051620001b390620013a2565b604051809103906000f080158015620001d0573d6000803e3d6000fd5b50600260006101000a81548173ffffffffffffffffffffffffffffffffffffffff021916908373ffffffffffffffffffffffffffffffffffffffff160217905550620002216200022760201b60201c565b620013b0565b600260009054906101000a900473ffffffffffffffffffffffffffffffffffffffff1673ffffffffffffffffffffffffffffffffffffffff1663cc6a7e3360646000809054906101000a900473ffffffffffffffffffffffffffffffffffffffff166040518363ffffffff1660e01b81526004018080602001806020018581526020018473ffffffffffffffffffffffffffffffffffffffff1673ffffffffffffffffffffffffffffffffffffffff1681526020018381038352600f8152602001807f5265646d6f6e642052656163746f720000000000000000000000000000000000815250602001838103825260088152602001807f50726f7065727479000000000000000000000000000000000000000000000000815250602001945050505050600060405180830381600087803b1580156200036557600080fd5b505af11580156200037a573d6000803e3d6000fd5b50505050600260009054906101000a900473ffffffffffffffffffffffffffffffffffffffff1673ffffffffffffffffffffffffffffffffffffffff1663cc6a7e3360646000809054906101000a900473ffffffffffffffffffffffffffffffffffffffff166040518363ffffffff1660e01b81526004018080602001806020018581526020018473ffffffffffffffffffffffffffffffffffffffff1673ffffffffffffffffffffffffffffffffffffffff1681526020018381038352600f8152602001807f53656174746c652052656163746f720000000000000000000000000000000000815250602001838103825260088152602001807f50726f7065727479000000000000000000000000000000000000000000000000815250602001945050505050600060405180830381600087803b158015620004bc57600080fd5b505af1158015620004d1573d6000803e3d6000fd5b50505050600260009054906101000a900473ffffffffffffffffffffffffffffffffffffffff1673ffffffffffffffffffffffffffffffffffffffff1663cc6a7e3360646000809054906101000a900473ffffffffffffffffffffffffffffffffffffffff166040518363ffffffff1660e01b81526004018080602001806020018581526020018473ffffffffffffffffffffffffffffffffffffffff1673ffffffffffffffffffffffffffffffffffffffff168152602001838103835260158152602001807f53616e204672616e636973636f2052656163746f720000000000000000000000815250602001838103825260088152602001807f50726f7065727479000000000000000000000000000000000000000000000000815250602001945050505050600060405180830381600087803b1580156200061357600080fd5b505af115801562000628573d6000803e3d6000fd5b50505050600260009054906101000a900473ffffffffffffffffffffffffffffffffffffffff1673ffffffffffffffffffffffffffffffffffffffff1663cc6a7e3360646000809054906101000a900473ffffffffffffffffffffffffffffffffffffffff166040518363ffffffff1660e01b81526004018080602001806020018581526020018473ffffffffffffffffffffffffffffffffffffffff1673ffffffffffffffffffffffffffffffffffffffff168152602001838103835260108152602001807f4e657720596f726b2052656163746f7200000000000000000000000000000000815250602001838103825260088152602001807f50726f7065727479000000000000000000000000000000000000000000000000815250602001945050505050600060405180830381600087803b1580156200076a57600080fd5b505af11580156200077f573d6000803e3d6000fd5b50505050600260009054906101000a900473ffffffffffffffffffffffffffffffffffffffff1673ffffffffffffffffffffffffffffffffffffffff1663cc6a7e3360646000809054906101000a900473ffffffffffffffffffffffffffffffffffffffff166040518363ffffffff1660e01b81526004018080602001806020018581526020018473ffffffffffffffffffffffffffffffffffffffff1673ffffffffffffffffffffffffffffffffffffffff1681526020018381038352600f8152602001807f546f726f6e746f2052656163746f720000000000000000000000000000000000815250602001838103825260088152602001807f50726f7065727479000000000000000000000000000000000000000000000000815250602001945050505050600060405180830381600087803b158015620008c157600080fd5b505af1158015620008d6573d6000803e3d6000fd5b50505050600260009054906101000a900473ffffffffffffffffffffffffffffffffffffffff1673ffffffffffffffffffffffffffffffffffffffff1663cc6a7e3360646000809054906101000a900473ffffffffffffffffffffffffffffffffffffffff166040518363ffffffff1660e01b81526004018080602001806020018581526020018473ffffffffffffffffffffffffffffffffffffffff1673ffffffffffffffffffffffffffffffffffffffff1681526020018381038352600e8152602001807f4c6f6e646f6e2052656163746f72000000000000000000000000000000000000815250602001838103825260088152602001807f50726f7065727479000000000000000000000000000000000000000000000000815250602001945050505050600060405180830381600087803b15801562000a1857600080fd5b505af115801562000a2d573d6000803e3d6000fd5b50505050600260009054906101000a900473ffffffffffffffffffffffffffffffffffffffff1673ffffffffffffffffffffffffffffffffffffffff1663cc6a7e3360646000809054906101000a900473ffffffffffffffffffffffffffffffffffffffff166040518363ffffffff1660e01b81526004018080602001806020018581526020018473ffffffffffffffffffffffffffffffffffffffff1673ffffffffffffffffffffffffffffffffffffffff168152602001838103835260118152602001807f53616f205061756c6f2052656163746f72000000000000000000000000000000815250602001838103825260088152602001807f50726f7065727479000000000000000000000000000000000000000000000000815250602001945050505050600060405180830381600087803b15801562000b6f57600080fd5b505af115801562000b84573d6000803e3d6000fd5b50505050600260009054906101000a900473ffffffffffffffffffffffffffffffffffffffff1673ffffffffffffffffffffffffffffffffffffffff1663cc6a7e3360646000809054906101000a900473ffffffffffffffffffffffffffffffffffffffff166040518363ffffffff1660e01b81526004018080602001806020018581526020018473ffffffffffffffffffffffffffffffffffffffff1673ffffffffffffffffffffffffffffffffffffffff168152602001838103835260108152602001807f54656c20417669762052656163746f7200000000000000000000000000000000815250602001838103825260088152602001807f50726f7065727479000000000000000000000000000000000000000000000000815250602001945050505050600060405180830381600087803b15801562000cc657600080fd5b505af115801562000cdb573d6000803e3d6000fd5b50505050600260009054906101000a900473ffffffffffffffffffffffffffffffffffffffff1673ffffffffffffffffffffffffffffffffffffffff1663cc6a7e3360646000809054906101000a900473ffffffffffffffffffffffffffffffffffffffff166040518363ffffffff1660e01b81526004018080602001806020018581526020018473ffffffffffffffffffffffffffffffffffffffff1673ffffffffffffffffffffffffffffffffffffffff168152602001838103835260118152602001807f53746f636b686f6c6d2052656163746f72000000000000000000000000000000815250602001838103825260088152602001807f50726f7065727479000000000000000000000000000000000000000000000000815250602001945050505050600060405180830381600087803b15801562000e1d57600080fd5b505af115801562000e32573d6000803e3d6000fd5b50505050600260009054906101000a900473ffffffffffffffffffffffffffffffffffffffff1673ffffffffffffffffffffffffffffffffffffffff1663cc6a7e3360646000809054906101000a900473ffffffffffffffffffffffffffffffffffffffff166040518363ffffffff1660e01b81526004018080602001806020018581526020018473ffffffffffffffffffffffffffffffffffffffff1673ffffffffffffffffffffffffffffffffffffffff168152602001838103835260118152602001807f4162752044686162692052656163746f72000000000000000000000000000000815250602001838103825260088152602001807f50726f7065727479000000000000000000000000000000000000000000000000815250602001945050505050600060405180830381600087803b15801562000f7457600080fd5b505af115801562000f89573d6000803e3d6000fd5b50505050600260009054906101000a900473ffffffffffffffffffffffffffffffffffffffff1673ffffffffffffffffffffffffffffffffffffffff1663cc6a7e3360646000809054906101000a900473ffffffffffffffffffffffffffffffffffffffff166040518363ffffffff1660e01b81526004018080602001806020018581526020018473ffffffffffffffffffffffffffffffffffffffff1673ffffffffffffffffffffffffffffffffffffffff1681526020018381038352600e8152602001807f5379646e65792052656163746f72000000000000000000000000000000000000815250602001838103825260088152602001807f50726f7065727479000000000000000000000000000000000000000000000000815250602001945050505050600060405180830381600087803b158015620010cb57600080fd5b505af1158015620010e0573d6000803e3d6000fd5b50505050600260009054906101000a900473ffffffffffffffffffffffffffffffffffffffff1673ffffffffffffffffffffffffffffffffffffffff1663cc6a7e3360646000809054906101000a900473ffffffffffffffffffffffffffffffffffffffff166040518363ffffffff1660e01b81526004018080602001806020018581526020018473ffffffffffffffffffffffffffffffffffffffff1673ffffffffffffffffffffffffffffffffffffffff168152602001838103835260108152602001807f5368616e676861692052656163746f7200000000000000000000000000000000815250602001838103825260088152602001807f50726f7065727479000000000000000000000000000000000000000000000000815250602001945050505050600060405180830381600087803b1580156200122257600080fd5b505af115801562001237573d6000803e3d6000fd5b50505050600260009054906101000a900473ffffffffffffffffffffffffffffffffffffffff1673ffffffffffffffffffffffffffffffffffffffff1663cc6a7e3360646000809054906101000a900473ffffffffffffffffffffffffffffffffffffffff166040518363ffffffff1660e01b81526004018080602001806020018581526020018473ffffffffffffffffffffffffffffffffffffffff1673ffffffffffffffffffffffffffffffffffffffff168152602001838103835260118152602001807f42616e67616c6f72652052656163746f72000000000000000000000000000000815250602001838103825260088152602001807f50726f7065727479000000000000000000000000000000000000000000000000815250602001945050505050600060405180830381600087803b1580156200137957600080fd5b505af11580156200138e573d6000803e3d6000fd5b50505050565b61089a8062003e6683390190565b611f5f806200470083390190565b612aa680620013c06000396000f3fe608060405234801561001057600080fd5b50600436106101165760003560e01c806383bd72ba116100a2578063d65ab5f211610071578063d65ab5f214610759578063ecbef16414610763578063f71d96cb1461081e578063f8b2cb4f14610918578063fd6673f51461097057610116565b806383bd72ba146104fa57806394217ad114610504578063c33ce7411461054e578063cbc6fb251461065e57610116565b806349ee979f116100e957806349ee979f14610264578063574a5b20146102ae5780636c5a2f371461030a57806376cdb03b146103dd578063822fbf581461042757610116565b80630ab9db5b1461011b57806312fa6feb146101655780631f2698ab146101875780633d536a2e146101a9575b600080fd5b61012361098e565b604051808273ffffffffffffffffffffffffffffffffffffffff1673ffffffffffffffffffffffffffffffffffffffff16815260200191505060405180910390f35b61016d6109b3565b604051808215151515815260200191505060405180910390f35b61018f6109c6565b604051808215151515815260200191505060405180910390f35b610262600480360360208110156101bf57600080fd5b81019080803590602001906401000000008111156101dc57600080fd5b8201836020820111156101ee57600080fd5b8035906020019184600183028401116401000000008311171561021057600080fd5b91908080601f016020809104026020016040519081016040528093929190818152602001838380828437600081840152601f19601f8201169050808301925050505050505091929192905050506109d9565b005b61026c610f11565b604051808273ffffffffffffffffffffffffffffffffffffffff1673ffffffffffffffffffffffffffffffffffffffff16815260200191505060405180910390f35b6102f0600480360360208110156102c457600080fd5b81019080803573ffffffffffffffffffffffffffffffffffffffff169060200190929190505050610fbb565b604051808215151515815260200191505060405180910390f35b6103c36004803603602081101561032057600080fd5b810190808035906020019064010000000081111561033d57600080fd5b82018360208201111561034f57600080fd5b8035906020019184600183028401116401000000008311171561037157600080fd5b91908080601f016020809104026020016040519081016040528093929190818152602001838380828437600081840152601f19601f82011690508083019250505050505050919291929050505061115e565b604051808215151515815260200191505060405180910390f35b6103e56112b3565b604051808273ffffffffffffffffffffffffffffffffffffffff1673ffffffffffffffffffffffffffffffffffffffff16815260200191505060405180910390f35b6104e06004803603602081101561043d57600080fd5b810190808035906020019064010000000081111561045a57600080fd5b82018360208201111561046c57600080fd5b8035906020019184600183028401116401000000008311171561048e57600080fd5b91908080601f016020809104026020016040519081016040528093929190818152602001838380828437600081840152601f19601f8201169050808301925050505050505091929192905050506112d9565b604051808215151515815260200191505060405180910390f35b61050261130f565b005b61050c61151d565b604051808273ffffffffffffffffffffffffffffffffffffffff1673ffffffffffffffffffffffffffffffffffffffff16815260200191505060405180910390f35b6105906004803603602081101561056457600080fd5b81019080803573ffffffffffffffffffffffffffffffffffffffff169060200190929190505050611543565b604051808573ffffffffffffffffffffffffffffffffffffffff1673ffffffffffffffffffffffffffffffffffffffff16815260200180602001841515151581526020018360068111156105e057fe5b60ff168152602001828103825285818151815260200191508051906020019080838360005b83811015610620578082015181840152602081019050610605565b50505050905090810190601f16801561064d5780820380516001836020036101000a031916815260200191505b509550505050505060405180910390f35b6107176004803603602081101561067457600080fd5b810190808035906020019064010000000081111561069157600080fd5b8201836020820111156106a357600080fd5b803590602001918460018302840111640100000000831117156106c557600080fd5b91908080601f016020809104026020016040519081016040528093929190818152602001838380828437600081840152601f19601f820116905080830192505050505050509192919290505050611645565b604051808273ffffffffffffffffffffffffffffffffffffffff1673ffffffffffffffffffffffffffffffffffffffff16815260200191505060405180910390f35b61076161179a565b005b61081c6004803603602081101561077957600080fd5b810190808035906020019064010000000081111561079657600080fd5b8201836020820111156107a857600080fd5b803590602001918460018302840111640100000000831117156107ca57600080fd5b91908080601f016020809104026020016040519081016040528093929190818152602001838380828437600081840152601f19601f820116905080830192505050505050509192919290505050611be1565b005b61084a6004803603602081101561083457600080fd5b81019080803590602001909291905050506125eb565b604051808573ffffffffffffffffffffffffffffffffffffffff1673ffffffffffffffffffffffffffffffffffffffff168152602001806020018415151515815260200183600681111561089a57fe5b60ff168152602001828103825285818151815260200191508051906020019080838360005b838110156108da5780820151818401526020810190506108bf565b50505050905090810190601f1680156109075780820380516001836020036101000a031916815260200191505b509550505050505060405180910390f35b61095a6004803603602081101561092e57600080fd5b81019080803573ffffffffffffffffffffffffffffffffffffffff1690602001909291905050506126fa565b6040518082815260200191505060405180910390f35b6109786128b8565b6040518082815260200191505060405180910390f35b6000809054906101000a900473ffffffffffffffffffffffffffffffffffffffff1681565b600660019054906101000a900460ff1681565b600660009054906101000a900460ff1681565b600660058054905010610a54576040517f08c379a000000000000000000000000000000000000000000000000000000000815260040180806020018281038252600c8152602001807f47616d652069732066756c6c000000000000000000000000000000000000000081525060200191505060405180910390fd5b6003816040518082805190602001908083835b60208310610a8a5780518252602082019150602081019050602083039250610a67565b6001836020036101000a038019825116818451168082178552505050505050905001915050908152602001604051809103902060009054906101000a900460ff1615610b3e576040517f08c379a00000000000000000000000000000000000000000000000000000000081526004018080602001828103825260158152602001807f4e616d6520697320616c72656164792074616b656e000000000000000000000081525060200191505060405180910390fd5b610b4733610fbb565b15610b9d576040517f08c379a00000000000000000000000000000000000000000000000000000000081526004018080602001828103825260228152602001806129b66022913960400191505060405180910390fd5b610ba56128c5565b60405180608001604052803373ffffffffffffffffffffffffffffffffffffffff16815260200183815260200160011515815260200160006006811115610be857fe5b81525090506005819080600181540180825580915050906001820390600052602060002090600302016000909192909190915060008201518160000160006101000a81548173ffffffffffffffffffffffffffffffffffffffff021916908373ffffffffffffffffffffffffffffffffffffffff1602179055506020820151816001019080519060200190610c7e929190612910565b5060408201518160020160006101000a81548160ff02191690831515021790555060608201518160020160016101000a81548160ff02191690836006811115610cc357fe5b021790555050505060016003836040518082805190602001908083835b60208310610d035780518252602082019150602081019050602083039250610ce0565b6001836020036101000a038019825116818451168082178552505050505050905001915050908152602001604051809103902060006101000a81548160ff02191690831515021790555080600460003373ffffffffffffffffffffffffffffffffffffffff1673ffffffffffffffffffffffffffffffffffffffff16815260200190815260200160002060008201518160000160006101000a81548173ffffffffffffffffffffffffffffffffffffffff021916908373ffffffffffffffffffffffffffffffffffffffff1602179055506020820151816001019080519060200190610df0929190612910565b5060408201518160020160006101000a81548160ff02191690831515021790555060608201518160020160016101000a81548160ff02191690836006811115610e3557fe5b02179055509050507fb46af3c568709a25575d501b270c4768aef802b1e39fb922a8f21cb385e2ae9b3383604051808373ffffffffffffffffffffffffffffffffffffffff1673ffffffffffffffffffffffffffffffffffffffff16815260200180602001828103825283818151815260200191508051906020019080838360005b83811015610ed2578082015181840152602081019050610eb7565b50505050905090810190601f168015610eff5780820380516001836020036101000a031916815260200191505b50935050505060405180910390a15050565b6000600260009054906101000a900473ffffffffffffffffffffffffffffffffffffffff1673ffffffffffffffffffffffffffffffffffffffff1663d50095846040518163ffffffff1660e01b815260040160206040518083038186803b158015610f7b57600080fd5b505afa158015610f8f573d6000803e3d6000fd5b505050506040513d6020811015610fa557600080fd5b8101908080519060200190929190505050905090565b6000610fc56128c5565b600460008473ffffffffffffffffffffffffffffffffffffffff1673ffffffffffffffffffffffffffffffffffffffff1681526020019081526020016000206040518060800160405290816000820160009054906101000a900473ffffffffffffffffffffffffffffffffffffffff1673ffffffffffffffffffffffffffffffffffffffff1673ffffffffffffffffffffffffffffffffffffffff168152602001600182018054600181600116156101000203166002900480601f0160208091040260200160405190810160405280929190818152602001828054600181600116156101000203166002900480156110fe5780601f106110d3576101008083540402835291602001916110fe565b820191906000526020600020905b8154815290600101906020018083116110e157829003601f168201915b505050505081526020016002820160009054906101000a900460ff161515151581526020016002820160019054906101000a900460ff16600681111561114057fe5b600681111561114b57fe5b8152505090508060400151915050919050565b6000600260009054906101000a900473ffffffffffffffffffffffffffffffffffffffff1673ffffffffffffffffffffffffffffffffffffffff16630e565948836040518263ffffffff1660e01b8152600401808060200180602001838103835284818151815260200191508051906020019080838360005b838110156111f25780820151818401526020810190506111d7565b50505050905090810190601f16801561121f5780820380516001836020036101000a031916815260200191505b50838103825260088152602001807f50726f7065727479000000000000000000000000000000000000000000000000815250602001935050505060206040518083038186803b15801561127157600080fd5b505afa158015611285573d6000803e3d6000fd5b505050506040513d602081101561129b57600080fd5b81019080805190602001909291905050509050919050565b600160009054906101000a900473ffffffffffffffffffffffffffffffffffffffff1681565b6003818051602081018201805184825260208301602085012081835280955050505050506000915054906101000a900460ff1681565b6000809054906101000a900473ffffffffffffffffffffffffffffffffffffffff1673ffffffffffffffffffffffffffffffffffffffff163373ffffffffffffffffffffffffffffffffffffffff16146113b4576040517f08c379a00000000000000000000000000000000000000000000000000000000081526004018080602001828103825260218152602001806129d86021913960400191505060405180910390fd5b600660009054906101000a900460ff16611436576040517f08c379a000000000000000000000000000000000000000000000000000000000815260040180806020018281038252601c8152602001807f43616e27742073746f7020616e20756e737461727465642067616d650000000081525060200191505060405180910390fd5b600660019054906101000a900460ff16156114b9576040517f08c379a00000000000000000000000000000000000000000000000000000000081526004018080602001828103825260128152602001807f47616d6520616c726561647920656e646564000000000000000000000000000081525060200191505060405180910390fd5b6000600660006101000a81548160ff0219169083151502179055506001600660016101000a81548160ff0219169083151502179055507f80b1c8e8eaeedcaace3ad4d2df854bbe670d3136540cce1433676223e6e2b75660405160405180910390a1565b600260009054906101000a900473ffffffffffffffffffffffffffffffffffffffff1681565b60046020528060005260406000206000915090508060000160009054906101000a900473ffffffffffffffffffffffffffffffffffffffff1690806001018054600181600116156101000203166002900480601f0160208091040260200160405190810160405280929190818152602001828054600181600116156101000203166002900480156116155780601f106115ea57610100808354040283529160200191611615565b820191906000526020600020905b8154815290600101906020018083116115f857829003601f168201915b5050505050908060020160009054906101000a900460ff16908060020160019054906101000a900460ff16905084565b6000600260009054906101000a900473ffffffffffffffffffffffffffffffffffffffff1673ffffffffffffffffffffffffffffffffffffffff16637b679aa9836040518263ffffffff1660e01b8152600401808060200180602001838103835284818151815260200191508051906020019080838360005b838110156116d95780820151818401526020810190506116be565b50505050905090810190601f1680156117065780820380516001836020036101000a031916815260200191505b50838103825260088152602001807f50726f7065727479000000000000000000000000000000000000000000000000815250602001935050505060206040518083038186803b15801561175857600080fd5b505afa15801561176c573d6000803e3d6000fd5b505050506040513d602081101561178257600080fd5b81019080805190602001909291905050509050919050565b6000809054906101000a900473ffffffffffffffffffffffffffffffffffffffff1673ffffffffffffffffffffffffffffffffffffffff163373ffffffffffffffffffffffffffffffffffffffff161461183f576040517f08c379a0000000000000000000000000000000000000000000000000000000008152600401808060200182810382526022815260200180612a506022913960400191505060405180910390fd5b600660009054906101000a900460ff16156118c2576040517f08c379a00000000000000000000000000000000000000000000000000000000081526004018080602001828103825260148152602001807f47616d6520616c7265616479207374617274656400000000000000000000000081525060200191505060405180910390fd5b600060058054905090506002811015611943576040517f08c379a00000000000000000000000000000000000000000000000000000000081526004018080602001828103825260198152602001807f4e656564206174206c656173742074776f20706c61796572730000000000000081525060200191505060405180910390fd5b60008090505b81811015611b96576119596128c5565b6005828154811061196657fe5b90600052602060002090600302016040518060800160405290816000820160009054906101000a900473ffffffffffffffffffffffffffffffffffffffff1673ffffffffffffffffffffffffffffffffffffffff1673ffffffffffffffffffffffffffffffffffffffff168152602001600182018054600181600116156101000203166002900480601f016020809104026020016040519081016040528092919081815260200182805460018160011615610100020316600290048015611a6e5780601f10611a4357610100808354040283529160200191611a6e565b820191906000526020600020905b815481529060010190602001808311611a5157829003601f168201915b505050505081526020016002820160009054906101000a900460ff161515151581526020016002820160019054906101000a900460ff166006811115611ab057fe5b6006811115611abb57fe5b815250509050600160009054906101000a900473ffffffffffffffffffffffffffffffffffffffff1673ffffffffffffffffffffffffffffffffffffffff166340c10f1982600001516103e86040518363ffffffff1660e01b8152600401808373ffffffffffffffffffffffffffffffffffffffff1673ffffffffffffffffffffffffffffffffffffffff16815260200182815260200192505050600060405180830381600087803b158015611b7057600080fd5b505af1158015611b84573d6000803e3d6000fd5b50505050508080600101915050611949565b506001600660006101000a81548160ff0219169083151502179055507f762f260439bb4be3ef6e4dc2786e2e7bd187d3d80b79057d7a424fe98563e33560405160405180910390a150565b611bea8161115e565b611c5c576040517f08c379a00000000000000000000000000000000000000000000000000000000081526004018080602001828103825260158152602001807f50726f706572747920697320617661696c61626c65000000000000000000000081525060200191505060405180910390fd5b600660009054906101000a900460ff16611cde576040517f08c379a000000000000000000000000000000000000000000000000000000000815260040180806020018281038252600f8152602001807f47616d652069732073746172746564000000000000000000000000000000000081525060200191505060405180910390fd5b611ce66128c5565b600460003373ffffffffffffffffffffffffffffffffffffffff1673ffffffffffffffffffffffffffffffffffffffff1681526020019081526020016000206040518060800160405290816000820160009054906101000a900473ffffffffffffffffffffffffffffffffffffffff1673ffffffffffffffffffffffffffffffffffffffff1673ffffffffffffffffffffffffffffffffffffffff168152602001600182018054600181600116156101000203166002900480601f016020809104026020016040519081016040528092919081815260200182805460018160011615610100020316600290048015611e1f5780601f10611df457610100808354040283529160200191611e1f565b820191906000526020600020905b815481529060010190602001808311611e0257829003601f168201915b505050505081526020016002820160009054906101000a900460ff161515151581526020016002820160019054906101000a900460ff166006811115611e6157fe5b6006811115611e6c57fe5b8152505090508060400151611ee9576040517f08c379a00000000000000000000000000000000000000000000000000000000081526004018080602001828103825260128152602001807f4164647265737320697320696e2067616d65000000000000000000000000000081525060200191505060405180910390fd5b6000600260009054906101000a900473ffffffffffffffffffffffffffffffffffffffff1673ffffffffffffffffffffffffffffffffffffffff16637b679aa9846040518263ffffffff1660e01b8152600401808060200180602001838103835284818151815260200191508051906020019080838360005b83811015611f7d578082015181840152602081019050611f62565b50505050905090810190601f168015611faa5780820380516001836020036101000a031916815260200191505b50838103825260088152602001807f50726f7065727479000000000000000000000000000000000000000000000000815250602001935050505060206040518083038186803b158015611ffc57600080fd5b505afa158015612010573d6000803e3d6000fd5b505050506040513d602081101561202657600080fd5b810190808051906020019092919050505090506000600260009054906101000a900473ffffffffffffffffffffffffffffffffffffffff1673ffffffffffffffffffffffffffffffffffffffff16633d0f34da856040518263ffffffff1660e01b8152600401808060200180602001838103835284818151815260200191508051906020019080838360005b838110156120cd5780820151818401526020810190506120b2565b50505050905090810190601f1680156120fa5780820380516001836020036101000a031916815260200191505b50838103825260088152602001807f50726f7065727479000000000000000000000000000000000000000000000000815250602001935050505060206040518083038186803b15801561214c57600080fd5b505afa158015612160573d6000803e3d6000fd5b505050506040513d602081101561217657600080fd5b810190808051906020019092919050505090503373ffffffffffffffffffffffffffffffffffffffff168273ffffffffffffffffffffffffffffffffffffffff16141561220e576040517f08c379a0000000000000000000000000000000000000000000000000000000008152600401808060200182810382526025815260200180612a2b6025913960400191505060405180910390fd5b80600160009054906101000a900473ffffffffffffffffffffffffffffffffffffffff1673ffffffffffffffffffffffffffffffffffffffff1663f8b2cb4f336040518263ffffffff1660e01b8152600401808273ffffffffffffffffffffffffffffffffffffffff1673ffffffffffffffffffffffffffffffffffffffff16815260200191505060206040518083038186803b1580156122ae57600080fd5b505afa1580156122c2573d6000803e3d6000fd5b505050506040513d60208110156122d857600080fd5b8101908080519060200190929190505050101561235d576040517f08c379a000000000000000000000000000000000000000000000000000000000815260040180806020018281038252601a8152602001807f506c617965722063616e206166666f72642070726f706572747900000000000081525060200191505060405180910390fd5b600160009054906101000a900473ffffffffffffffffffffffffffffffffffffffff1673ffffffffffffffffffffffffffffffffffffffff1663ae3425828333846040518463ffffffff1660e01b8152600401808473ffffffffffffffffffffffffffffffffffffffff1673ffffffffffffffffffffffffffffffffffffffff1681526020018373ffffffffffffffffffffffffffffffffffffffff1673ffffffffffffffffffffffffffffffffffffffff1681526020018281526020019350505050600060405180830381600087803b15801561243a57600080fd5b505af115801561244e573d6000803e3d6000fd5b50505050600260009054906101000a900473ffffffffffffffffffffffffffffffffffffffff1673ffffffffffffffffffffffffffffffffffffffff166312878cb18333876040518463ffffffff1660e01b8152600401808473ffffffffffffffffffffffffffffffffffffffff1673ffffffffffffffffffffffffffffffffffffffff1681526020018373ffffffffffffffffffffffffffffffffffffffff1673ffffffffffffffffffffffffffffffffffffffff1681526020018060200180602001838103835284818151815260200191508051906020019080838360005b8381101561254a57808201518184015260208101905061252f565b50505050905090810190601f1680156125775780820380516001836020036101000a031916815260200191505b50838103825260088152602001807f50726f706572747900000000000000000000000000000000000000000000000081525060200195505050505050600060405180830381600087803b1580156125cd57600080fd5b505af11580156125e1573d6000803e3d6000fd5b5050505050505050565b600581815481106125f857fe5b90600052602060002090600302016000915090508060000160009054906101000a900473ffffffffffffffffffffffffffffffffffffffff1690806001018054600181600116156101000203166002900480601f0160208091040260200160405190810160405280929190818152602001828054600181600116156101000203166002900480156126ca5780601f1061269f576101008083540402835291602001916126ca565b820191906000526020600020905b8154815290600101906020018083116126ad57829003601f168201915b5050505050908060020160009054906101000a900460ff16908060020160019054906101000a900460ff16905084565b60008173ffffffffffffffffffffffffffffffffffffffff163373ffffffffffffffffffffffffffffffffffffffff16148061278257506000809054906101000a900473ffffffffffffffffffffffffffffffffffffffff1673ffffffffffffffffffffffffffffffffffffffff163373ffffffffffffffffffffffffffffffffffffffff16145b6127d7576040517f08c379a00000000000000000000000000000000000000000000000000000000081526004018080602001828103825260328152602001806129f96032913960400191505060405180910390fd5b600160009054906101000a900473ffffffffffffffffffffffffffffffffffffffff1673ffffffffffffffffffffffffffffffffffffffff1663f8b2cb4f836040518263ffffffff1660e01b8152600401808273ffffffffffffffffffffffffffffffffffffffff1673ffffffffffffffffffffffffffffffffffffffff16815260200191505060206040518083038186803b15801561287657600080fd5b505afa15801561288a573d6000803e3d6000fd5b505050506040513d60208110156128a057600080fd5b81019080805190602001909291905050509050919050565b6000600580549050905090565b6040518060800160405280600073ffffffffffffffffffffffffffffffffffffffff168152602001606081526020016000151581526020016000600681111561290a57fe5b81525090565b828054600181600116156101000203166002900490600052602060002090601f016020900481019282601f1061295157805160ff191683800117855561297f565b8280016001018555821561297f579182015b8281111561297e578251825591602001919060010190612963565b5b50905061298c9190612990565b5090565b6129b291905b808211156129ae576000816000905550600101612996565b5090565b9056fe53616d652061646472657373206973206e6f7420616c7265616479206a6f696e65644f6e6c79207468652042616e6b65722063616e2073746f70207468652067616d65596f752063616e6e6f742067657420612062616c616e6365206f6e20736f6d656f6e6520656c73652773206163636f756e74506c617965722063616e277420616c7265616479206f776e207468652070726f70657274794f6e6c79207468652042616e6b65722063616e207374617274207468652067616d65a265627a7a72315820beaeb419efc5ab496af7d9f57d8c5dc0d7594f62be1a7bd45efc2222ea21d6fe64736f6c63430005100032608060405234801561001057600080fd5b50336000806101000a81548173ffffffffffffffffffffffffffffffffffffffff021916908373ffffffffffffffffffffffffffffffffffffffff16021790555061083a806100606000396000f3fe608060405234801561001057600080fd5b50600436106100575760003560e01c8063075461721461005c57806327e235e3146100a657806340c10f19146100fe578063ae3425821461014c578063f8b2cb4f146101ba575b600080fd5b610064610212565b604051808273ffffffffffffffffffffffffffffffffffffffff1673ffffffffffffffffffffffffffffffffffffffff16815260200191505060405180910390f35b6100e8600480360360208110156100bc57600080fd5b81019080803573ffffffffffffffffffffffffffffffffffffffff169060200190929190505050610237565b6040518082815260200191505060405180910390f35b61014a6004803603604081101561011457600080fd5b81019080803573ffffffffffffffffffffffffffffffffffffffff1690602001909291908035906020019092919050505061024f565b005b6101b86004803603606081101561016257600080fd5b81019080803573ffffffffffffffffffffffffffffffffffffffff169060200190929190803573ffffffffffffffffffffffffffffffffffffffff169060200190929190803590602001909291905050506103f0565b005b6101fc600480360360208110156101d057600080fd5b81019080803573ffffffffffffffffffffffffffffffffffffffff169060200190929190505050610688565b6040518082815260200191505060405180910390f35b6000809054906101000a900473ffffffffffffffffffffffffffffffffffffffff1681565b60016020528060005260406000206000915090505481565b6000809054906101000a900473ffffffffffffffffffffffffffffffffffffffff1673ffffffffffffffffffffffffffffffffffffffff163373ffffffffffffffffffffffffffffffffffffffff1614610311576040517f08c379a00000000000000000000000000000000000000000000000000000000081526004018080602001828103825260108152602001807f53656e646572203d3d204d696e7465720000000000000000000000000000000081525060200191505060405180910390fd5b789f4f2726179a224501d762422c946590d91000000000000000811061039f576040517f08c379a00000000000000000000000000000000000000000000000000000000081526004018080602001828103825260148152602001807f416d6f756e742069736e277420746f6f2062696700000000000000000000000081525060200191505060405180910390fd5b80600160008473ffffffffffffffffffffffffffffffffffffffff1673ffffffffffffffffffffffffffffffffffffffff168152602001908152602001600020600082825401925050819055505050565b6000809054906101000a900473ffffffffffffffffffffffffffffffffffffffff1673ffffffffffffffffffffffffffffffffffffffff163373ffffffffffffffffffffffffffffffffffffffff1614610495576040517f08c379a00000000000000000000000000000000000000000000000000000000081526004018080602001828103825260278152602001806107df6027913960400191505060405180910390fd5b600160008373ffffffffffffffffffffffffffffffffffffffff1673ffffffffffffffffffffffffffffffffffffffff1681526020019081526020016000205481111561054a576040517f08c379a00000000000000000000000000000000000000000000000000000000081526004018080602001828103825260158152602001807f496e73756666696369656e742062616c616e63652e000000000000000000000081525060200191505060405180910390fd5b80600160008473ffffffffffffffffffffffffffffffffffffffff1673ffffffffffffffffffffffffffffffffffffffff1681526020019081526020016000206000828254039250508190555080600160008573ffffffffffffffffffffffffffffffffffffffff1673ffffffffffffffffffffffffffffffffffffffff168152602001908152602001600020600082825401925050819055507f3990db2d31862302a685e8086b5755072a6e2b5b780af1ee81ece35ee3cd3345828483604051808473ffffffffffffffffffffffffffffffffffffffff1673ffffffffffffffffffffffffffffffffffffffff1681526020018373ffffffffffffffffffffffffffffffffffffffff1673ffffffffffffffffffffffffffffffffffffffff168152602001828152602001935050505060405180910390a1505050565b60008173ffffffffffffffffffffffffffffffffffffffff163373ffffffffffffffffffffffffffffffffffffffff16148061071057506000809054906101000a900473ffffffffffffffffffffffffffffffffffffffff1673ffffffffffffffffffffffffffffffffffffffff163373ffffffffffffffffffffffffffffffffffffffff16145b610765576040517f08c379a00000000000000000000000000000000000000000000000000000000081526004018080602001828103825260328152602001806107ad6032913960400191505060405180910390fd5b600160008373ffffffffffffffffffffffffffffffffffffffff1673ffffffffffffffffffffffffffffffffffffffff16815260200190815260200160002054905091905056fe596f752063616e6e6f742067657420612062616c616e6365206f6e20736f6d656f6e6520656c73652773206163636f756e744f6e6c79207468652062616e6b65722063616e20617574686f72697a65207472616e7366657273a265627a7a7231582035e57352e8ef33844ec529cb1484a8c97974e1abb21b7ede1d92014985bf3a3164736f6c63430005100032608060405234801561001057600080fd5b50336000806101000a81548173ffffffffffffffffffffffffffffffffffffffff021916908373ffffffffffffffffffffffffffffffffffffffff160217905550611eff806100606000396000f3fe608060405234801561001057600080fd5b50600436106100885760003560e01c80637b679aa91161005b5780637b679aa914610539578063cc6a7e33146106cb578063cf35bdd014610847578063d50095841461093e57610088565b80630e5659481461008d57806312878cb1146101f75780633d0f34da14610389578063481c6a75146104ef575b600080fd5b6101dd600480360360408110156100a357600080fd5b81019080803590602001906401000000008111156100c057600080fd5b8201836020820111156100d257600080fd5b803590602001918460018302840111640100000000831117156100f457600080fd5b91908080601f016020809104026020016040519081016040528093929190818152602001838380828437600081840152601f19601f8201169050808301925050505050505091929192908035906020019064010000000081111561015757600080fd5b82018360208201111561016957600080fd5b8035906020019184600183028401116401000000008311171561018b57600080fd5b91908080601f016020809104026020016040519081016040528093929190818152602001838380828437600081840152601f19601f820116905080830192505050505050509192919290505050610988565b604051808215151515815260200191505060405180910390f35b6103876004803603608081101561020d57600080fd5b81019080803573ffffffffffffffffffffffffffffffffffffffff169060200190929190803573ffffffffffffffffffffffffffffffffffffffff1690602001909291908035906020019064010000000081111561026a57600080fd5b82018360208201111561027c57600080fd5b8035906020019184600183028401116401000000008311171561029e57600080fd5b91908080601f016020809104026020016040519081016040528093929190818152602001838380828437600081840152601f19601f8201169050808301925050505050505091929192908035906020019064010000000081111561030157600080fd5b82018360208201111561031357600080fd5b8035906020019184600183028401116401000000008311171561033557600080fd5b91908080601f016020809104026020016040519081016040528093929190818152602001838380828437600081840152601f19601f820116905080830192505050505050509192919290505050610bd2565b005b6104d96004803603604081101561039f57600080fd5b81019080803590602001906401000000008111156103bc57600080fd5b8201836020820111156103ce57600080fd5b803590602001918460018302840111640100000000831117156103f057600080fd5b91908080601f016020809104026020016040519081016040528093929190818152602001838380828437600081840152601f19601f8201169050808301925050505050505091929192908035906020019064010000000081111561045357600080fd5b82018360208201111561046557600080fd5b8035906020019184600183028401116401000000008311171561048757600080fd5b91908080601f016020809104026020016040519081016040528093929190818152602001838380828437600081840152601f19601f82011690508083019250505050505050919291929050505061124c565b6040518082815260200191505060405180910390f35b6104f76114ff565b604051808273ffffffffffffffffffffffffffffffffffffffff1673ffffffffffffffffffffffffffffffffffffffff16815260200191505060405180910390f35b6106896004803603604081101561054f57600080fd5b810190808035906020019064010000000081111561056c57600080fd5b82018360208201111561057e57600080fd5b803590602001918460018302840111640100000000831117156105a057600080fd5b91908080601f016020809104026020016040519081016040528093929190818152602001838380828437600081840152601f19601f8201169050808301925050505050505091929192908035906020019064010000000081111561060357600080fd5b82018360208201111561061557600080fd5b8035906020019184600183028401116401000000008311171561063757600080fd5b91908080601f016020809104026020016040519081016040528093929190818152602001838380828437600081840152601f19601f820116905080830192505050505050509192919290505050611524565b604051808273ffffffffffffffffffffffffffffffffffffffff1673ffffffffffffffffffffffffffffffffffffffff16815260200191505060405180910390f35b610845600480360360808110156106e157600080fd5b81019080803590602001906401000000008111156106fe57600080fd5b82018360208201111561071057600080fd5b8035906020019184600183028401116401000000008311171561073257600080fd5b91908080601f016020809104026020016040519081016040528093929190818152602001838380828437600081840152601f19601f8201169050808301925050505050505091929192908035906020019064010000000081111561079557600080fd5b8201836020820111156107a757600080fd5b803590602001918460018302840111640100000000831117156107c957600080fd5b91908080601f016020809104026020016040519081016040528093929190818152602001838380828437600081840152601f19601f82011690508083019250505050505050919291929080359060200190929190803573ffffffffffffffffffffffffffffffffffffffff1690602001909291905050506117d7565b005b6108736004803603602081101561085d57600080fd5b8101908080359060200190929190505050611c19565b604051808673ffffffffffffffffffffffffffffffffffffffff1673ffffffffffffffffffffffffffffffffffffffff168152602001806020018581526020018415151515815260200183151515158152602001828103825286818151815260200191508051906020019080838360005b838110156108ff5780820151818401526020810190506108e4565b50505050905090810190601f16801561092c5780820380516001836020036101000a031916815260200191505b50965050505050505060405180910390f35b610946611d21565b604051808273ffffffffffffffffffffffffffffffffffffffff1673ffffffffffffffffffffffffffffffffffffffff16815260200191505060405180910390f35b60008083836040516020018083805190602001908083835b602083106109c357805182526020820191506020810190506020830392506109a0565b6001836020036101000a03801982511681845116808217855250505050505090500182805190602001908083835b60208310610a1457805182526020820191506020810190506020830392506109f1565b6001836020036101000a038019825116818451168082178552505050505050905001925050506040516020818303038152906040528051906020012060001c9050610a5d611d4a565b600160008381526020019081526020016000206040518060a00160405290816000820160009054906101000a900473ffffffffffffffffffffffffffffffffffffffff1673ffffffffffffffffffffffffffffffffffffffff1673ffffffffffffffffffffffffffffffffffffffff168152602001600182018054600181600116156101000203166002900480601f016020809104026020016040519081016040528092919081815260200182805460018160011615610100020316600290048015610b6a5780601f10610b3f57610100808354040283529160200191610b6a565b820191906000526020600020905b815481529060010190602001808311610b4d57829003601f168201915b50505050508152602001600282015481526020016003820160009054906101000a900460ff161515151581526020016003820160019054906101000a900460ff161515151581525050905080608001518015610bc857508060600151155b9250505092915050565b6000809054906101000a900473ffffffffffffffffffffffffffffffffffffffff1673ffffffffffffffffffffffffffffffffffffffff163373ffffffffffffffffffffffffffffffffffffffff1614610c77576040517f08c379a0000000000000000000000000000000000000000000000000000000008152600401808060200182810382526029815260200180611e5c6029913960400191505060405180910390fd5b600082826040516020018083805190602001908083835b60208310610cb15780518252602082019150602081019050602083039250610c8e565b6001836020036101000a03801982511681845116808217855250505050505090500182805190602001908083835b60208310610d025780518252602082019150602081019050602083039250610cdf565b6001836020036101000a038019825116818451168082178552505050505050905001925050506040516020818303038152906040528051906020012060001c9050610d4b611d4a565b600160008381526020019081526020016000206040518060a00160405290816000820160009054906101000a900473ffffffffffffffffffffffffffffffffffffffff1673ffffffffffffffffffffffffffffffffffffffff1673ffffffffffffffffffffffffffffffffffffffff168152602001600182018054600181600116156101000203166002900480601f016020809104026020016040519081016040528092919081815260200182805460018160011615610100020316600290048015610e585780601f10610e2d57610100808354040283529160200191610e58565b820191906000526020600020905b815481529060010190602001808311610e3b57829003601f168201915b50505050508152602001600282015481526020016003820160009054906101000a900460ff161515151581526020016003820160019054906101000a900460ff16151515158152505090508060800151610f1a576040517f08c379a00000000000000000000000000000000000000000000000000000000081526004018080602001828103825260108152602001807f4173736574206d7573742065786973740000000000000000000000000000000081525060200191505060405180910390fd5b8573ffffffffffffffffffffffffffffffffffffffff16816000015173ffffffffffffffffffffffffffffffffffffffff1614610fa2576040517f08c379a0000000000000000000000000000000000000000000000000000000008152600401808060200182810382526023815260200180611e396023913960400191505060405180910390fd5b84816000019073ffffffffffffffffffffffffffffffffffffffff16908173ffffffffffffffffffffffffffffffffffffffff1681525050806001600084815260200190815260200160002060008201518160000160006101000a81548173ffffffffffffffffffffffffffffffffffffffff021916908373ffffffffffffffffffffffffffffffffffffffff1602179055506020820151816001019080519060200190611051929190611d93565b506040820151816002015560608201518160030160006101000a81548160ff02191690831515021790555060808201518160030160016101000a81548160ff0219169083151502179055509050507f0a6f8450b2b99855aa129f392b8255fc82ed3e7ac2e4635a31d7f83b0a813b903387878787604051808673ffffffffffffffffffffffffffffffffffffffff1673ffffffffffffffffffffffffffffffffffffffff1681526020018573ffffffffffffffffffffffffffffffffffffffff1673ffffffffffffffffffffffffffffffffffffffff1681526020018473ffffffffffffffffffffffffffffffffffffffff1673ffffffffffffffffffffffffffffffffffffffff1681526020018060200180602001838103835285818151815260200191508051906020019080838360005b8381101561119f578082015181840152602081019050611184565b50505050905090810190601f1680156111cc5780820380516001836020036101000a031916815260200191505b50838103825284818151815260200191508051906020019080838360005b838110156112055780820151818401526020810190506111ea565b50505050905090810190601f1680156112325780820380516001836020036101000a031916815260200191505b5097505050505050505060405180910390a1505050505050565b60008083836040516020018083805190602001908083835b602083106112875780518252602082019150602081019050602083039250611264565b6001836020036101000a03801982511681845116808217855250505050505090500182805190602001908083835b602083106112d857805182526020820191506020810190506020830392506112b5565b6001836020036101000a038019825116818451168082178552505050505050905001925050506040516020818303038152906040528051906020012060001c9050611321611d4a565b600160008381526020019081526020016000206040518060a00160405290816000820160009054906101000a900473ffffffffffffffffffffffffffffffffffffffff1673ffffffffffffffffffffffffffffffffffffffff1673ffffffffffffffffffffffffffffffffffffffff168152602001600182018054600181600116156101000203166002900480601f01602080910402602001604051908101604052809291908181526020018280546001816001161561010002031660029004801561142e5780601f106114035761010080835404028352916020019161142e565b820191906000526020600020905b81548152906001019060200180831161141157829003601f168201915b50505050508152602001600282015481526020016003820160009054906101000a900460ff161515151581526020016003820160019054906101000a900460ff161515151581525050905080608001516114f0576040517f08c379a00000000000000000000000000000000000000000000000000000000081526004018080602001828103825260148152602001807f417373657420646f6573206e6f7420657869737400000000000000000000000081525060200191505060405180910390fd5b80604001519250505092915050565b6000809054906101000a900473ffffffffffffffffffffffffffffffffffffffff1681565b60008083836040516020018083805190602001908083835b6020831061155f578051825260208201915060208101905060208303925061153c565b6001836020036101000a03801982511681845116808217855250505050505090500182805190602001908083835b602083106115b0578051825260208201915060208101905060208303925061158d565b6001836020036101000a038019825116818451168082178552505050505050905001925050506040516020818303038152906040528051906020012060001c90506115f9611d4a565b600160008381526020019081526020016000206040518060a00160405290816000820160009054906101000a900473ffffffffffffffffffffffffffffffffffffffff1673ffffffffffffffffffffffffffffffffffffffff1673ffffffffffffffffffffffffffffffffffffffff168152602001600182018054600181600116156101000203166002900480601f0160208091040260200160405190810160405280929190818152602001828054600181600116156101000203166002900480156117065780601f106116db57610100808354040283529160200191611706565b820191906000526020600020905b8154815290600101906020018083116116e957829003601f168201915b50505050508152602001600282015481526020016003820160009054906101000a900460ff161515151581526020016003820160019054906101000a900460ff161515151581525050905080608001516117c8576040517f08c379a00000000000000000000000000000000000000000000000000000000081526004018080602001828103825260148152602001807f417373657420646f6573206e6f7420657869737400000000000000000000000081525060200191505060405180910390fd5b80600001519250505092915050565b6000809054906101000a900473ffffffffffffffffffffffffffffffffffffffff1673ffffffffffffffffffffffffffffffffffffffff163373ffffffffffffffffffffffffffffffffffffffff161461187c576040517f08c379a0000000000000000000000000000000000000000000000000000000008152600401808060200182810382526025815260200180611e856025913960400191505060405180910390fd5b600084846040516020018083805190602001908083835b602083106118b65780518252602082019150602081019050602083039250611893565b6001836020036101000a03801982511681845116808217855250505050505090500182805190602001908083835b6020831061190757805182526020820191506020810190506020830392506118e4565b6001836020036101000a038019825116818451168082178552505050505050905001925050506040516020818303038152906040528051906020012060001c90506001600082815260200190815260200160002060030160019054906101000a900460ff16156119c2576040517f08c379a0000000000000000000000000000000000000000000000000000000008152600401808060200182810382526021815260200180611eaa6021913960400191505060405180910390fd5b6119ca611d4a565b6040518060a001604052808473ffffffffffffffffffffffffffffffffffffffff168152602001878152602001858152602001600015158152602001600115158152509050806001600084815260200190815260200160002060008201518160000160006101000a81548173ffffffffffffffffffffffffffffffffffffffff021916908373ffffffffffffffffffffffffffffffffffffffff1602179055506020820151816001019080519060200190611a86929190611d93565b506040820151816002015560608201518160030160006101000a81548160ff02191690831515021790555060808201518160030160016101000a81548160ff0219169083151502179055509050507f9f1ffd7915fd0d97979cca0ac07b1048a70d2e76e98d1fdb62e5ad5759f7737b338787604051808473ffffffffffffffffffffffffffffffffffffffff1673ffffffffffffffffffffffffffffffffffffffff1681526020018060200180602001838103835285818151815260200191508051906020019080838360005b83811015611b6e578082015181840152602081019050611b53565b50505050905090810190601f168015611b9b5780820380516001836020036101000a031916815260200191505b50838103825284818151815260200191508051906020019080838360005b83811015611bd4578082015181840152602081019050611bb9565b50505050905090810190601f168015611c015780820380516001836020036101000a031916815260200191505b509550505050505060405180910390a1505050505050565b60016020528060005260406000206000915090508060000160009054906101000a900473ffffffffffffffffffffffffffffffffffffffff1690806001018054600181600116156101000203166002900480601f016020809104026020016040519081016040528092919081815260200182805460018160011615610100020316600290048015611ceb5780601f10611cc057610100808354040283529160200191611ceb565b820191906000526020600020905b815481529060010190602001808311611cce57829003601f168201915b5050505050908060020154908060030160009054906101000a900460ff16908060030160019054906101000a900460ff16905085565b60008060009054906101000a900473ffffffffffffffffffffffffffffffffffffffff16905090565b6040518060a00160405280600073ffffffffffffffffffffffffffffffffffffffff16815260200160608152602001600081526020016000151581526020016000151581525090565b828054600181600116156101000203166002900490600052602060002090601f016020900481019282601f10611dd457805160ff1916838001178555611e02565b82800160010185558215611e02579182015b82811115611e01578251825591602001919060010190611de6565b5b509050611e0f9190611e13565b5090565b611e3591905b80821115611e31576000816000905550600101611e19565b5090565b9056fe4173736574206d757374206265206f776e65642062792066726f6d20616464726573734f6e6c79207468652041737365744d616e616765722063616e207472616e73666572206173736574734f6e6c7920746865204173736574204d616e616765722063616e20616464206173736574734173736574206e616d6520616e64207479706520616c7265616479206164646564a265627a7a723158206bed76e18aaf6466ac8126ee996c7bf982355f5391f4c795a18c7d40b80f16ad64736f6c63430005100032",
  "source": "pragma solidity >=0.5.0 <0.7.0;\n\nimport \"./Bank.sol\";\nimport \"./AssetManager.sol\";\n\ncontract Banker {\n    // The keyword \"public\" makes variables\n    // accessible from other contracts\n    address public banker;\n\n    Bank public bank;\n\n    AssetManager public assetManager;\n\n    enum Piece {Unassigned, Bitcoin, Ethereum, Monero, ZCash, YCash, Stellar}\n\n    struct  Player {\n        address addr;\n        string name;\n        bool taken;\n        Piece piece;\n    }\n\n    mapping(string => bool) public names;\n    mapping(address => Player) public addrPlayerMapping;\n\n    Player[] public players;\n\n    event GameStarted();\n    event GameStopped();\n\n    event PlayerJoined(address player, string name);\n\n    bool public started;\n    bool public ended;\n\n    // Constructor code is only run when the contract\n    // is created\n    constructor() public {\n        banker = msg.sender;\n        bank = new Bank();\n        bank.mint(banker, 100000);\n\n        assetManager = new AssetManager();\n        publishProperties();\n    }\n\n    function publishProperties() private {\n        assetManager.addAsset(\"Redmond Reactor\", \"Property\", 100, banker);\n        assetManager.addAsset(\"Seattle Reactor\", \"Property\", 100, banker);\n        assetManager.addAsset(\"San Francisco Reactor\", \"Property\", 100, banker);\n        assetManager.addAsset(\"New York Reactor\", \"Property\", 100, banker);\n        assetManager.addAsset(\"Toronto Reactor\", \"Property\", 100, banker);\n        assetManager.addAsset(\"London Reactor\", \"Property\", 100, banker);\n        assetManager.addAsset(\"Sao Paulo Reactor\", \"Property\", 100, banker);\n        assetManager.addAsset(\"Tel Aviv Reactor\", \"Property\", 100, banker);\n        assetManager.addAsset(\"Stockholm Reactor\", \"Property\", 100, banker);\n        assetManager.addAsset(\"Abu Dhabi Reactor\", \"Property\", 100, banker);\n        assetManager.addAsset(\"Sydney Reactor\", \"Property\", 100, banker);\n        assetManager.addAsset(\"Shanghai Reactor\", \"Property\", 100, banker);\n        assetManager.addAsset(\"Bangalore Reactor\", \"Property\", 100, banker);\n    }\n\n    function startGame() public {\n        require(msg.sender == banker, \"Only the Banker can start the game\");\n        require(!started, \"Game already started\");\n\n        uint length = players.length;\n        require(length >= 2, \"Need at least two players\");\n\n        for(uint i = 0; i < length; i++) {\n            Player memory p = players[i];\n            bank.mint(p.addr, 1000);\n        }\n\n        started = true;\n\n        emit GameStarted();\n    }\n\n    function stopGame() public {\n        require(msg.sender == banker, \"Only the Banker can stop the game\");\n        require(started, \"Can't stop an unstarted game\");\n        require(!ended, \"Game already ended\");\n        started = false;\n        ended = true;\n        emit GameStopped();\n    }\n\n    function joinGame(string memory _name) public {\n        require(players.length < 6, \"Game is full\");\n        require(!names[_name], \"Name is already taken\");\n        require(!isPlayerInGame(msg.sender), \"Same address is not already joined\");\n\n        Player memory p = Player({\n            addr: msg.sender,\n            name: _name,\n            taken: true,\n            piece: Piece.Unassigned\n          }\n        );\n        players.push(p);\n        names[_name] = true;\n        addrPlayerMapping[msg.sender] = p;\n\n        emit PlayerJoined(msg.sender, _name);\n    }\n\n    function getBalance(address account) public view returns (uint) {\n        require(msg.sender == account || msg.sender == banker,\n           \"You cannot get a balance on someone else's account\");\n        return bank.getBalance(account);\n    }\n\n    function isPropertyAvailable(string memory _name) public view returns (bool) {\n        return assetManager.isAvailable(_name, \"Property\");\n    }\n\n    function getPropertyOwner(string memory _name) public view returns (address) {\n        return assetManager.getOwner(_name, \"Property\");\n    }\n\n    function getPropertyManager() public view returns (address) {\n        return assetManager.getManager();\n    }\n\n    function getNumberOfPlayers() public view returns (uint) {\n        return players.length;\n    }\n\n    function isPlayerInGame(address _addr) public view returns (bool) {\n       Player memory p = addrPlayerMapping[_addr];\n       return p.taken;\n    }\n\n    function buyProperty(string memory _name) public {\n        require(isPropertyAvailable(_name), \"Property is available\");\n        require(started, \"Game is started\");\n        Player memory p = addrPlayerMapping[msg.sender];\n        require(p.taken, \"Address is in game\");\n\n        address owner = assetManager.getOwner(_name, \"Property\");\n        uint price = assetManager.getPrice(_name, \"Property\");\n\n        require(owner != msg.sender, \"Player can't already own the property\");\n        require(bank.getBalance(msg.sender) >= price, \"Player can afford property\");\n\n        bank.sendMoney(owner, msg.sender, price);\n        assetManager.transferAsset(owner, msg.sender, _name, \"Property\");\n    }\n}",
  "sourcePath": "/Users/iDler/git/ReactorsBlockchain/contracts/Banker.sol",
  "compiler": {
    "name": "solc",
    "version": "0.5.16+commit.9c3226ce.Emscripten.clang"
  },
  "schemaVersion": "3.2.5",
  "updatedAt": "2020-09-14T11:15:07.505Z",
  "networkType": "ethereum",
  "devdoc": {
    "methods": {}
  },
  "userdoc": {
    "methods": {}
  }
}