{
  "contractName": "Bank",
  "abi": [
    {
      "inputs": [],
      "payable": false,
      "stateMutability": "nonpayable",
      "type": "constructor"
    },
    {
      "anonymous": false,
      "inputs": [
        {
          "indexed": false,
          "internalType": "address",
          "name": "from",
          "type": "address"
        },
        {
          "indexed": false,
          "internalType": "address",
          "name": "to",
          "type": "address"
        },
        {
          "indexed": false,
          "internalType": "uint256",
          "name": "amount",
          "type": "uint256"
        }
      ],
      "name": "Sent",
      "type": "event"
    },
    {
      "constant": true,
      "inputs": [
        {
          "internalType": "address",
          "name": "",
          "type": "address"
        }
      ],
      "name": "balances",
      "outputs": [
        {
          "internalType": "uint256",
          "name": "",
          "type": "uint256"
        }
      ],
      "payable": false,
      "stateMutability": "view",
      "type": "function"
    },
    {
      "constant": true,
      "inputs": [],
      "name": "minter",
      "outputs": [
        {
          "internalType": "address",
          "name": "",
          "type": "address"
        }
      ],
      "payable": false,
      "stateMutability": "view",
      "type": "function"
    },
    {
      "constant": false,
      "inputs": [
        {
          "internalType": "address",
          "name": "receiver",
          "type": "address"
        },
        {
          "internalType": "uint256",
          "name": "amount",
          "type": "uint256"
        }
      ],
      "name": "mint",
      "outputs": [],
      "payable": false,
      "stateMutability": "nonpayable",
      "type": "function"
    },
    {
      "constant": false,
      "inputs": [
        {
          "internalType": "address",
          "name": "receiver",
          "type": "address"
        },
        {
          "internalType": "address",
          "name": "sender",
          "type": "address"
        },
        {
          "internalType": "uint256",
          "name": "amount",
          "type": "uint256"
        }
      ],
      "name": "sendMoney",
      "outputs": [],
      "payable": false,
      "stateMutability": "nonpayable",
      "type": "function"
    },
    {
      "constant": true,
      "inputs": [
        {
          "internalType": "address",
          "name": "account",
          "type": "address"
        }
      ],
      "name": "getBalance",
      "outputs": [
        {
          "internalType": "uint256",
          "name": "",
          "type": "uint256"
        }
      ],
      "payable": false,
      "stateMutability": "view",
      "type": "function"
    }
  ],
  "bytecode": "0x608060405234801561001057600080fd5b50336000806101000a81548173ffffffffffffffffffffffffffffffffffffffff021916908373ffffffffffffffffffffffffffffffffffffffff16021790555061083a806100606000396000f3fe608060405234801561001057600080fd5b50600436106100575760003560e01c8063075461721461005c57806327e235e3146100a657806340c10f19146100fe578063ae3425821461014c578063f8b2cb4f146101ba575b600080fd5b610064610212565b604051808273ffffffffffffffffffffffffffffffffffffffff1673ffffffffffffffffffffffffffffffffffffffff16815260200191505060405180910390f35b6100e8600480360360208110156100bc57600080fd5b81019080803573ffffffffffffffffffffffffffffffffffffffff169060200190929190505050610237565b6040518082815260200191505060405180910390f35b61014a6004803603604081101561011457600080fd5b81019080803573ffffffffffffffffffffffffffffffffffffffff1690602001909291908035906020019092919050505061024f565b005b6101b86004803603606081101561016257600080fd5b81019080803573ffffffffffffffffffffffffffffffffffffffff169060200190929190803573ffffffffffffffffffffffffffffffffffffffff169060200190929190803590602001909291905050506103f0565b005b6101fc600480360360208110156101d057600080fd5b81019080803573ffffffffffffffffffffffffffffffffffffffff169060200190929190505050610688565b6040518082815260200191505060405180910390f35b6000809054906101000a900473ffffffffffffffffffffffffffffffffffffffff1681565b60016020528060005260406000206000915090505481565b6000809054906101000a900473ffffffffffffffffffffffffffffffffffffffff1673ffffffffffffffffffffffffffffffffffffffff163373ffffffffffffffffffffffffffffffffffffffff1614610311576040517f08c379a00000000000000000000000000000000000000000000000000000000081526004018080602001828103825260108152602001807f53656e646572203d3d204d696e7465720000000000000000000000000000000081525060200191505060405180910390fd5b789f4f2726179a224501d762422c946590d91000000000000000811061039f576040517f08c379a00000000000000000000000000000000000000000000000000000000081526004018080602001828103825260148152602001807f416d6f756e742069736e277420746f6f2062696700000000000000000000000081525060200191505060405180910390fd5b80600160008473ffffffffffffffffffffffffffffffffffffffff1673ffffffffffffffffffffffffffffffffffffffff168152602001908152602001600020600082825401925050819055505050565b6000809054906101000a900473ffffffffffffffffffffffffffffffffffffffff1673ffffffffffffffffffffffffffffffffffffffff163373ffffffffffffffffffffffffffffffffffffffff1614610495576040517f08c379a00000000000000000000000000000000000000000000000000000000081526004018080602001828103825260278152602001806107df6027913960400191505060405180910390fd5b600160008373ffffffffffffffffffffffffffffffffffffffff1673ffffffffffffffffffffffffffffffffffffffff1681526020019081526020016000205481111561054a576040517f08c379a00000000000000000000000000000000000000000000000000000000081526004018080602001828103825260158152602001807f496e73756666696369656e742062616c616e63652e000000000000000000000081525060200191505060405180910390fd5b80600160008473ffffffffffffffffffffffffffffffffffffffff1673ffffffffffffffffffffffffffffffffffffffff1681526020019081526020016000206000828254039250508190555080600160008573ffffffffffffffffffffffffffffffffffffffff1673ffffffffffffffffffffffffffffffffffffffff168152602001908152602001600020600082825401925050819055507f3990db2d31862302a685e8086b5755072a6e2b5b780af1ee81ece35ee3cd3345828483604051808473ffffffffffffffffffffffffffffffffffffffff1673ffffffffffffffffffffffffffffffffffffffff1681526020018373ffffffffffffffffffffffffffffffffffffffff1673ffffffffffffffffffffffffffffffffffffffff168152602001828152602001935050505060405180910390a1505050565b60008173ffffffffffffffffffffffffffffffffffffffff163373ffffffffffffffffffffffffffffffffffffffff16148061071057506000809054906101000a900473ffffffffffffffffffffffffffffffffffffffff1673ffffffffffffffffffffffffffffffffffffffff163373ffffffffffffffffffffffffffffffffffffffff16145b610765576040517f08c379a00000000000000000000000000000000000000000000000000000000081526004018080602001828103825260328152602001806107ad6032913960400191505060405180910390fd5b600160008373ffffffffffffffffffffffffffffffffffffffff1673ffffffffffffffffffffffffffffffffffffffff16815260200190815260200160002054905091905056fe596f752063616e6e6f742067657420612062616c616e6365206f6e20736f6d656f6e6520656c73652773206163636f756e744f6e6c79207468652062616e6b65722063616e20617574686f72697a65207472616e7366657273a265627a7a7231582035e57352e8ef33844ec529cb1484a8c97974e1abb21b7ede1d92014985bf3a3164736f6c63430005100032",
  "source": "pragma solidity >=0.5.0 <0.7.0;\n\ncontract Bank {\n    // The keyword \"public\" makes variables\n    // accessible from other contracts\n    address public minter;\n    mapping (address => uint) public balances;\n\n    // Events allow clients to react to specific\n    // contract changes you declare\n    event Sent(address from, address to, uint amount);\n\n    // Constructor code is only run when the contract\n    // is created\n    constructor() public {\n        minter = msg.sender;\n    }\n\n    // Sends an amount of newly created coins to an address\n    // Can only be called by the contract creator\n    function mint(address receiver, uint amount) public {\n        require(msg.sender == minter, \"Sender == Minter\");\n        require((amount < 1e60), \"Amount isn't too big\");\n\n        balances[receiver] += amount;\n    }\n\n    // Sends an amount of existing coins\n    // from any caller to an address\n    function sendMoney(address receiver, address sender, uint amount) public {\n        require(msg.sender == minter, \"Only the banker can authorize transfers\");\n        require(amount <= balances[sender], \"Insufficient balance.\");\n        balances[sender] -= amount;\n        balances[receiver] += amount;\n        emit Sent(sender, receiver, amount);\n    }\n\n    function getBalance(address account) public view returns (uint) {\n        require(msg.sender == account || msg.sender == minter,\n           \"You cannot get a balance on someone else's account\");\n        return balances[account];\n    }\n}",
  "sourcePath": "/Users/iDler/git/ReactorsBlockchain/contracts/Bank.sol",
  "compiler": {
    "name": "solc",
    "version": "0.5.16+commit.9c3226ce.Emscripten.clang"
  },
  "schemaVersion": "3.2.5",
  "updatedAt": "2020-09-14T11:15:04.907Z",
  "networkType": "ethereum",
  "devdoc": {
    "methods": {}
  },
  "userdoc": {
    "methods": {}
  }
}